:020000040000FA
:04000000E1EF0BF031
:08000800056ED8CF06F0E0CF31
:1000100007F00001E9CF0DF0EACF08F0E1CF09F0D9
:10002000E2CF0AF0D9CF0BF0DACF0CF0F3CF14F017
:10003000F4CF15F0FACF16F000C00FF001C010F0A9
:1000400002C011F003C012F004C013F0A0AA2CEFFC
:1000500000F0A1BA45EF07F00FC000F010C001F0AA
:1000600011C002F012C003F013C004F00E8E0DC0D8
:10007000E9FF08C0EAFF09C0E1FF0AC0E2FF0BC0C8
:10008000D9FF0CC0DAFF14C0F3FF15C0F4FF16C08F
:10009000FAFF055007C0E0FF06C0D8FF1000F76A5E
:1000A000AE0FF66E000EF7220900F55012000403A1
:1000B0000100000000000000000000000000F76ADE
:1000C000CE0FF66E000EF7220900F5501200040064
:1000D0000100000000000000000000000000F76ABE
:1000E000EE0FF66E000EF7220900F55012004000E8
:1000F00008004000000000000000000000000000B8
:100100000000000000000000000000000000F76A8E
:100110001E0FF66E010EF7220900F5501200400086
:10012000000040000000000000000000000000008F
:100130000000000000000000000000000000F76A5E
:100140004E0FF66E010EF7220900F550120009025B
:100150004300020100C03209040000010202010054
:1001600005240010010424020205240600010524D0
:10017000010001070581030800FA09040100020AD1
:10018000000000070502024000FA07058202400055
:10019000FA00F76AA20FF66E010EF7220900F55079
:1001A00012000200F76AB40FF66E010EF722090082
:1001B000F5501200120110010200004061043300EA
:1001C000000101020001F76AD60FF66E010EF72258
:1001D0000900F5501200040309040803430043001A
:1001E00053001E03430043005300200052005300FD
:1001F0003200330032002000440065006D006F00C3
:100200006D926994689450EF07F06A6A689259EFAA
:1002100007F0326A316A250E306E800E2F6E336A17
:10022000346A080E356E856B8093376A366A816B47
:1002300082918081000C0101B46BB45101080AE382
:10024000036AB4512D0FE96E000E0320EA6EEF6AC7
:10025000B42BF3D70001DDDF206A010E216E1F6A87
:10026000000C010E0101BD6FBD510F080EE3700EB1
:10027000BD25016E0F0E036ED8B0032A01C0E9FF41
:1002800003C0EAFFEF6ABD2BEFD7246A236A00019F
:10029000000C400E0401016F050E036F026B880E07
:1002A000006F046B050E076F400E066F0001000C17
:1002B0006A6A686A9F0E6B6E390E696E6E6ABBDF82
:1002C000D0DF160E706E68A602D06896FCD76D98C7
:1002D000E0DF030E256E5FEF07F0698468986D829A
:1002E00065EF07F0689C6BEF07F070A002D0D1DFDC
:1002F0007090689A71EF07F0B8C126F0000CFF0EFD
:10030000266E000C0101B66B2C523DE0B6513F0841
:100310003AE32250000105E0020A0FE0010A19E069
:1003200024D0036A2B50F2CFB8F1F29E08DF01010E
:10033000B8BFF28EB76F000118D0036A2B50F2CF0E
:10034000B8F1F29E40DF0101B8BFF28EB76F000135
:100350000CD0036A2B50F2CFB8F1F29E23DF0101DB
:10036000B8BFF28EB76F000100D02B2A2C06010116
:10037000B651B62B036A400FE96E050E0320EA6EF4
:10038000B7C1EFFFC1D72C5204E1B651400801E0DC
:100390001F6AB6C1B8F10001AFDF000C2B6A226AF8
:1003A00005010351010A000105E0030A08E0010A02
:1003B00009E021D0120E2C6E030E226E1ED0430EC9
:1003C0002C6E1BD0020E226E036A05010251270F0C
:1003D000E96E000E0320EA6EEFCF2BF0036A2B507C
:1003E000F2CFB5F1F29E0001EEDE0101B5BFF28E53
:1003F0002C6E000102D083DF0CD00501075305E10C
:100400002C50065D02E206C52CF0010E1F6E0001A5
:1004100079DF3CEF03F00101B55306E1040E256ED0
:1004200000011FDFCED00101050E256EB86F800ED2
:10043000B76F010EB66FB6510F08D8A0C2D0B96B16
:10044000036AB651F2CFBDF1F29E000138DE010120
:10045000BDBFF28E000A55E0040EB96FD890B635D4
:10046000036AF2CFBDF1F29E000151DE0900F5CF23
:1004700003F00101BDBFF28EBA6F03C0BBF1B651EC
:10048000080DF350010F016E040E036ED8B0032A5D
:1004900001C0E9FF03C0EAFFBAC1EFFFB651080D82
:1004A000F350020F016E040E036ED8B0032A01C090
:1004B000E9FF03C0EAFFB8C1ECFFED52B7C1EFFF9F
:1004C000D890B635036AF2CFBDF1F29E00011FDE6F
:1004D0000900F5CF03F00101BDBFF28EB72703502D
:1004E000B823880EBC6FBBB1BC81BBB3BC83B65113
:1004F000080DF3CF01F0040E01C0E9FFEA6EBCC1A4
:10050000EFFF036AB651F2CFBDF1F29E0001C7DDE5
:100510000101BDBFF28E000A33E0B983B651080D68
:10052000F350060F016E040E036ED8B0032A01C00B
:10053000E9FF03C0EAFFB8C1ECFFED52B7C1EFFF1E
:10054000D890B635036AF2CFBDF1F29E0001C7DD47
:100550000900F5CF03F00101BDBFF28EB7270350AC
:10056000B823B651080DF350040F016E040E036E4C
:10057000D8B0032A01C0E9FF03C0EAFF400EEF6EC6
:10058000B951060802E10E0EB96F036AB651F2CFF7
:10059000BDF1F29E000183DD0101BDBFF28E0208B4
:1005A00001E0B989700EB625016E0F0E036ED8B04A
:1005B000032A01C0E9FF03C0EAFFB9C1EFFFB62B70
:1005C0003AD7000134EF03F00501015100010DE0BD
:1005D000010A15E0020A20E0060A2AE0030A31E0D7
:1005E0000E0A30E0010A36E045D021C040F5050191
:1005F000416B020E0101B86F00017EDE3DD00501A6
:10060000022D07D0010E21160101B86B000174DE26
:1006100002D0000174DE30D00501022D06D0218207
:100620000101B86B000168DE02D0000168DE24D051
:10063000020E1F6E02C52AF00101B86B00015CDEDC
:100640001BD0ACD620C040F5010E0101B86F0001EF
:1006500053DE12D00501025101080AE302C520F061
:1006600002C5B5F10001D7D60101B86B000144DE27
:10067000000102D044DE00D0D4EF04F020C0B5F178
:1006800005010151000105E00A0A0CE0010A31E010
:1006900045D00501406B416B020E0101B86F0001AE
:1006A0002BDE3ED00101B55321E0010EB55D036A9A
:1006B000F2CFB7F1F29E00016CDD0101B7BFF28EFF
:1006C000016E0501045DD8A002D001010FD0036ABC
:1006D00004512D0FE96E000E0320EA6EEFCF40F5B6
:1006E000010E0101B86F000107DE02D0000107DE34
:1006F00017D00101B5530FE0036A050104512D0F16
:10070000E96E000E0320EA6E02C5EFFF0101B86B2F
:100710000001F2DD02D00001F2DD02D0F0DD00D0F8
:10072000D4EF04F00101B691B5BFB681B59FB6A173
:1007300012D0036AB551F2CFB7F1F29E0001AFDCDF
:100740000101B7BFF28E000A02E1000E01D0010ED6
:10075000016E12D011D0036AB551F2CFB7F1F29EFB
:100760000001ADDC0101B7BFF28E000A02E1000E0C
:1007700001D0010E016E00D0000135EF04F001013F
:10078000B691B5BFB681B59FB6A110D0B551080DD1
:10079000F350040F016E040E036ED8B0032A01C09B
:1007A000E9FF03C0EAFF880EEF6E09D0B551080DCE
:1007B000F3CF01F0040E01C0E9FFEA6EEF6A000119
:1007C00044EF04F00101B691B5BFB681B59FB6A163
:1007D00010D0B551080DF350040F016E040E036ED6
:1007E000D8B0032A01C0E9FF03C0EAFF840EEF6E10
:1007F0000AD0B551080DF3CF01F0040E01C0E9FF96
:10080000EA6E840EEF6E00014CEF04F00101B69128
:10081000B5BFB681B59FB6A110D0B551080DF35044
:10082000040F016E040E036ED8B0032A01C0E9FF65
:1008300003C0EAFFEFCFB7F10AD0B551080DF3CFEF
:1008400001F0040E01C0E9FFEA6EEFCFB7F1B7AFD8
:1008500002D0B7B502D0000E01D0010E016E00012A
:1008600058EF04F004C5B5F15DD701522EE0050143
:100870000151010A000105E0020A0BE0030A11E040
:1008800022D004C5B5F17BD70101B86B000134DD7E
:100890001CD004C5B5F196D70101B86B00012CDD61
:1008A00014D00501406B416B04C5B5F10001AED712
:1008B000015203E0010E0501406F020E0101B86F05
:1008C00000011ADD02D01BDD00D0D4EF04F0FE0ED3
:1008D000266E000C0501042D01D002D004534EE118
:1008E000015100010BE0010A0DE0210A1CE0010AA0
:1008F0001FE0030A30E0010A35E03DD0010E866FAB
:10090000E6DF3BD0050EEA6E400EE96EE26A380E75
:10091000E16E080E016EE6CFEEFF012EFCD706C594
:10092000B8F1EADC2AD0020E866F8083D0DF25D0B2
:10093000050EEA6E400EE96EE26A2F0EE16E070EBA
:10094000016EE6CFEEFF012EFCD7070E0101B86F56
:100950000001D2DC12D002C585F00101B86B0001A4
:10096000CBDC0BD002C537F003C536F00101B86B04
:100970000001C2DC02D0C3DC00D005010001D4EFCD
:1009800004F01F6A050100517F0B000107E0010A16
:1009900006E0030A05E0230A04E004D015D66ED66B
:1009A00061D798D7ACDC00D0DEEF06F00101B5517D
:1009B000080DF3CF01F0040E01C0E9FFEA6EEFCF9E
:1009C000B7F1B651020806E1B7AD02D0B66B02D05E
:1009D000010EB66FB651030812E1840EB76FB55120
:1009E000080DF350040F016E040E036ED8B0032AF5
:1009F00001C0E9FF03C0EAFF840EEF6E09D0B62DF7
:100A000003D0C80EB76F04D0B65302E1880EB76F9B
:100A1000036A010E026EB551006E05E0D8900236F1
:100A20000336002EFBD70250FF0A006EFF0E031A9A
:100A30000050231603502416D890B535036AF2CF20
:100A4000BAF1F29E000187EC00F00900F5CF03F047
:100A50000101BABFF28EB86F03C0B9F1B551080DEC
:100A6000F350010F016E040E036ED8B0032A01C0CB
:100A7000E9FF03C0EAFFB8C1EFFFB9B1B781B9B36D
:100A8000B783B551080DF3CF01F0040E01C0E9FFA3
:100A9000EA6EB7C1EFFF0001000C0101C151080D62
:100AA000F350040F016E040E036ED8B0032A01C088
:100AB000E9FF03C0EAFFEFCFC5F1C5BF5BD0C1516D
:100AC000080DF350050F016E040E036ED8B0032A13
:100AD00001C0E9FF03C0EAFFC2C1EFFFC451020831
:100AE00016E1C151080DF350040F016E040E036EA0
:100AF000D8B0032A01C0E9FF03C0EAFFEFCFC5F178
:100B0000C5AD02D0C46B02D0010EC46F13D0C45166
:100B1000040810E1C151080DF3CF01F0040E01C02B
:100B2000E9FFEA6EEFCFC5F1C5AD03D0010EC46F8A
:100B300001D0C46BC42D03D0C80EC56F04D0C453FC
:100B400002E1880EC56FC3B1C581C3B3C583C1516E
:100B5000080DF350040F016E040E036ED8B0032A83
:100B600001C0E9FF03C0EAFFC5C1EFFF010E016E3E
:100B700003D000D0000E016E0001000C8651010A66
:100B800003E0030A14E026D0EA6A380EE96E050E87
:100B9000E26EE16A080E016EE6CFEEFF012EFCD791
:100BA0000101B86B00017CEC01F0866B17D0EA6A9A
:100BB0002F0EE96E050EE26EE16A070E016EE6CFBA
:100BC000EEFF012EFCD7866B0101B86B00017CECB7
:100BD00001F004D0866B49EC01F000D016EF06F06E
:100BE0000101B651080DF350010F016E040E036EA2
:100BF000D8B0032A01C0E9FF03C0EAFF036AEFCFC0
:100C000001F003C002F000010DEF06F08281846B59
:100C1000020E0101B66F0001E3D701C083F01DEFA2
:100C200006F00101B55304E10001A8D717D0010176
:100C3000B551020804E10001E9D710D00101036AAF
:100C4000010E026EB551006E05E0D89002360336F3
:100C5000002EFBD702502312035024120001000C77
:100C6000B6C16EFF0101B65303E0040E256E02D03B
:100C7000020E256E000142EF06F0206A1F6A2AC0AC
:100C8000B6F1EED7C3EF06F00101B651080DF350EF
:100C9000040F016E040E036ED8B0032A01C0E9FFF1
:100CA00003C0EAFFEFCFBEF1BEBF41D0B651080D81
:100CB000F350060F016E040E036ED8B0032A01C074
:100CC000E9FF03C0EAFFECCF03F0ED52EFCFBFF135
:100CD00003C0C0F1BD6BBC6BBD51BA5D1AE303E14B
:100CE000B951BC5D16E2B7C1E9FFB8C1EAFFEFCF69
:100CF000C3F1C0C1EAFFBFC1E9FFC3C1EFFFBF2B12
:100D0000D8B4C02BB72BD8B4B82BBC2BD8B4BD2BC0
:100D1000E3D7B6C1C1F1BAC1C3F1B9C1C2F1BBC118
:100D2000C4F10001BADE015004D000D00101000E70
:100D3000016E0001000C81530FE08091020E010151
:100D4000B66FB86B400EB76FBA6B81C0B9F1020EC7
:100D5000BB6F000199DF816B000C815302E0EBDF78
:100D600001D08081CAEF06F00101B5530EE11F2CBE
:100D700005D0000182EC01F006D001011F500208ED
:100D800003E100017AD7010106D0B551020803E161
:100D90000001E3D701010001000C6C300101B46FC8
:100DA000B433B4331F0EB4176C5246E10401005142
:100DB0003C0B340821E1046B0001E3D5263C07D04D
:100DC0000101B56B030EB66F0001F0DD12D0010119
:100DD000B56B020EB66F0001E9DD2650FE0809E092
:100DE0000101C16BC36B26C0C2F1040EC46F0001C8
:100DF00054DE6D981ED0040100513C0B04081AE12A
:100E00000101B56B00010DDF0101B56B020EB66F7C
:100E10000001CCDD2650FE080CE0263C01D009D0B4
:100E20000101C16BC36B26C0C2F1010EC46F00018A
:100E300034DE040127D001016C50040816E1FF0ED6
:100E4000266EB56B000190DF263C01D00AD001016F
:100E5000C16BC36B26C0C2F1020EC46F00011DDE60
:100E600002D049EC01F00DD001016CB406D0B4C140
:100E7000B5F10001D6DE05D00101B4C1B5F1000124
:100E800073DF0401000176EF07F0255201E12FD056
:100E900068522DE068A404D069A402D000EF01F0EC
:100EA0006DA201D024D068A204D069A202D005EFBF
:100EB00001F068A004D069A002D058EF01F068A842
:100EC00004D069A802D06DEF01F068AC04D069AC21
:100ED00002D072EF01F068AA04D069AA02D075EFBF
:100EE00001F068A604D069A602D057D76896A19AE7
:100EF0002CEF00F06D6A696A080E6F6E945030092D
:100F00000101946E256A186AF2BE188EF29E0001E5
:100F10001BEC01F018BEF28E246A236AB3EF07F0CF
:100F2000186AF2BE188EF29E1BEC01F018BEF28E0B
:100F30006D6A140E6F6E696A6D86010E256EA4EFE0
:100F400007F06DB601D0ECD7252C0BD06DBA09D0C7
:100F5000686A696AA08AC00EF212110E696E020EEA
:100F6000256E000CC7D7EDDF25500208FCE118EF15
:100F70000CF098C11EF097C11DF096C11CF095C1F0
:100F80001BF0A2EF0AF001019A519C03F3CF01F08C
:100F9000F4CF00F09D03F35000269B519C03F350C7
:100FA0000020026E0001000C01019F6BA06B010E7E
:100FB000A16FDA6AD96AA46F970EA36F010EEA6E69
:100FC0009B0EE96EA4C1E2FFA3C1E1FFA1C1A2F1A2
:100FD000D890E550EE02F3509F23F450A023A22FA7
:100FE000F7D79FC1DEFFA0C19FF1A06BD8B0A02BA7
:100FF000A32BD8B4A42BA12BA1510508DFE100013C
:1010000039EF08F0016A026A006A036A01019D5122
:1010100002E19C5118E0100E9E6FD8909A379B37D2
:10102000003603369D51035C02E19C51005C07E3EE
:101030009C51005ED8A003069D51035ED880013606
:1010400002369E2FEAD700015AEF08F01EC09AF12F
:101050001DC099F11CC098F11BC097F1410E010110
:101060009E6FC60E9D6F4E0E9C6F6D0E9B6F0001A6
:101070009BD7390E010100241B6E300E01201C6E1F
:10108000000E02201D6E000E03201E6E1DC000F01B
:101090001EC001F0026A036A1EC099F11DC098F1DA
:1010A0001EC09BF11DC09AF17F0E9D6FFF0E9C6FBD
:1010B0000001A8D700C001F003C002F0C8EF0AF099
:1010C0000101A191F2BEA181F29E000181513F0870
:1010D00002E23F0E816F8151812B036A400FE96E5E
:1010E000000E0320EA6EA0C1EFFFF29E0101A1B144
:1010F000F28E000180A107D0186AF2BE188EF29E0F
:101100001ADE18BEF28E95EF08F081513F080AE210
:1011100080A107D0186AF2BE188EF29E0CDE18BEAF
:10112000F28EF3D79FC1A0F1CBD7000C01019EBF77
:1011300011D00F0E006E9D3900160A0E005C03E2FE
:10114000300E002602D09E51002600C09FF1000103
:10115000DCDF01010F0E9D170A0E9D5D02E2300ECD
:1011600002D09E9F9E519D279DC19FF10001CDDF22
:10117000000C010193536AE19B6B93C19AF19D6B43
:101180001A0E9C6F0001FFDE02C095F101C094F1C0
:10119000870E01010124E96E000E0220EA6EEFCFF6
:1011A00096F19B6B93C19AF19D6B1A0E9C6F000197
:1011B000EADE02C098F101C097F1010E010101249D
:1011C000016E000E0220036E0150870FE96E000EC3
:1011D0000320EA6EEFCF99F19B6B93C19AF19D6B5F
:1011E0001A0E9C6F0001CFDE02C09BF101C09AF184
:1011F000020E01010124016E000E0220036E015057
:10120000870FE96E000E0320EA6EEFCF9CF14D0EC2
:101210009F6F00017ADF490E01019F6F000175DFAA
:1012200096C19DF1370E01019E6F00017FDF99C1CC
:101230009DF1370E01019E6F000178DF9CC19DF189
:10124000370E01019E6F000171DF0101010E932530
:10125000946F9D6F370E9E6F000168DF030E0101D2
:10126000916F9151160828E3010E9125010B00E1C1
:101270009B6B93C19AF19D6B1A0E9C6F000183DEEC
:1012800002C095F101C094F1010191510124016E58
:10129000000E0220036E0150870FE96E000E03203E
:1012A000EA6EEFCF96F196C19DF1370E9E6F000169
:1012B0003DDF0101912BD5D78CC194F1956B8CC189
:1012C0009DF1370E9E6F000131DF8BC19DF1370E0E
:1012D00001019E6F00012ADF0101935109081AE103
:1012E000AA0E9D6F370E9E6F000120DF550E010183
:1012F0009D6F370E9E6F000119DFAA0E01019D6FD1
:10130000370E9E6F000112DF0A0E01019F6F000170
:10131000FCDE01010001000CC69E9E9696C1C9FF2D
:10132000020EC6BE05D09EA6FED7000EC5BC010E9D
:10133000016E000CC586C5B6FED700B0C59A00A0E8
:10134000C58AC588C5B8FED7C9CF01F0E1EF09F05D
:10135000C580C5B0FED794C196F1DEDF010E010154
:10136000966F0001D9DFC584C5B4FED701018F6B2C
:101370008F5119082BE3C580C5B0FED7010E942507
:10138000956F966F0001C8DF01019B6B93C19AF1C5
:101390009D6B1A0E9C6F0001F6DD02C096F101C034
:1013A00095F101018F510124016E000E0220036EA0
:1013B0000150870FE96E000E0320EA6E006A0001FB
:1013C000B9D701C0EFFF01018F2BD2D7C584C5B4B7
:1013D000FED79B6B93C19AF19D6B1A0E9C6F000117
:1013E000D2DD02C096F101C095F1870E0101012402
:1013F000E96E000E0220EA6EEF50420842E18F6B68
:101400008F511A083EE39B6B93C19AF19D6B1A0EA4
:101410009C6F0001B8DD02C096F101C095F1010199
:101420008F510124016E000E0220036E0150870FC0
:10143000016E000E032201C097F103C098F19B6B6F
:1014400093C19AF19D6B1A0E9C6F00019CDD01C047
:1014500099F1010E01018F250124016E000E022079
:10146000036E0150870FE96E000E0320EA6EEFCF86
:101470009CF198C1EAFF97C1E9FF9CC1EFFF8F2B58
:10148000BFD79B6B93C19AF19D6B1A0E9C6F0001A5
:101490007ADD02C096F101C095F1170E0101012419
:1014A000016E000E0220036E0150870FE96E000EE0
:1014B0000320EA6E9B6BEFCF9AF1010E9D6F9C6B40
:1014C000000161DD02C099F101C098F101019B6B3F
:1014D00093C19AF19D6B1A0E9C6F000154DD01C0FF
:1014E0009AF1180E01010124016E000E0220036E14
:1014F0000150870FE96E000E0320EA6EEF50982529
:101500008B6F000E99218C6F0001000C0101906B14
:1015100090510908D8A036D19051F60FD8B030D1EB
:101520000A0F0001C5EF0BF0D650D7CF03F0010131
:10153000936FD7CF94F1986B976BD7CF96F1956F48
:10154000000117D501018C6B8B6B8F6B8F511608C7
:10155000D8A09AD09B6B90C19AF19D6B1A0E9C6F8C
:10156000000111DD02C094F101C093F101018F511E
:101570000124016E000E0220036E0150870F016EE0
:10158000000E032201C095F103C096F100015ED563
:10159000010196C1EAFF95C1E9FF01C0EFFF8F513C
:1015A00002081EE28F5116081BE39B6B90C19AF153
:1015B0009D6B1A0E9C6F0001E6DC01C093F10101E6
:1015C0008F510124016E000E0220036E0150870F1F
:1015D000E96E000E0320EA6EEF508B27000E8C237D
:1015E0008F2D50D09B6B90C19AF19D6B1A0E9C6F02
:1015F0000001C9DC02C094F101C093F1020E0101A7
:101600000124016E000E0220036E0150870F016E4F
:10161000000E032201C095F103C096F19B6B90C1AF
:101620009AF19D6B1A0E9C6F0001ADDC02C098F11F
:1016300001C097F1870E01010124E96E000E02201E
:10164000EA6EEFCF99F19B6B90C19AF19D6B1A0EE8
:101650009C6F000198DC01C09AF1010E0101012488
:10166000016E000E0220036E0150870FE96E000E1E
:101670000320EA6EEF50992596C1EAFF95C1E9FF74
:10168000EF6E8F2B8F2B62D790C193F1000171DD2C
:10169000010176D0000190C193F1A00E0101946F79
:1016A000000156DE90C193F164DD010169D00001B3
:1016B00090C193F1B00E0101946F000149DE90C119
:1016C00093F157DD01015CD0000190C193F1C00E90
:1016D0000101946F00013CDE90C193F14ADD0101EC
:1016E0004FD0000190C193F1D00E0101946F000121
:1016F0002FDE90C193F13DDD010142D0000190C188
:1017000093F1E00E0101946F000122DE90C193F18C
:1017100030DD010135D0000190C193F1100E0101BF
:10172000946F000115DE90C193F123DD010128D0F3
:10173000000190C193F1200E0101946F000108DEB9
:1017400090C193F116DD01011BD0000190C193F10E
:10175000300E0101946F0001FBDD90C193F109DDB2
:1017600001010ED0000190C193F1400E0101946F70
:101770000001EEDD90C193F1FCDC010101D001011B
:10178000902BC6D600011DEF0CF0F2CF0EF0F29EAA
:10179000E824F76AF736AF0FF66E170EF7220A0045
:1017A000F550FA6E0800F5500EBEF28EF96E28154F
:1017B0009616B016CA16E416FE16181732174C17EE
:1017C0006617F86AD09E0D8EFE0E006E040E016E36
:1017D000020EE96E000EEA6EEE6A002EFDD7012EB3
:1017E000FBD7EA6AE96A938293801A0EC86E280EC4
:1017F000C66EC79EC79CC150C00B0F09C16E070EB5
:10180000B46E196A1A6A256A276A040E286E0C0ECD
:10181000296E2C6A816B866B01018B6B8C6B8D6BD7
:10182000926BC00ED56E000109EC01F0B2EF07F02B
:0E183000A1EC07F0205201E069D6FAD70300C0
:020000040030CA
:0E000000240E3E1E008381000FC00FE00F4053
:00000001FF
;PIC18F2550
