:020000040000FA
:0400000058EF01F0C4
:08000800056ED8CF06F0E0CF31
:1000100007F00001E9CF0DF0EACF08F0E1CF09F0D9
:10002000E2CF0AF0D9CF0BF0DACF0CF0F3CF14F017
:10003000F4CF15F0FACF16F000C00FF001C010F0A9
:1000400002C011F003C012F004C013F09DA62CEF03
:1000500000F09EB647EF01F00FC000F010C001F0B5
:1000600011C002F012C003F013C004F00E8E0DC0D8
:10007000E9FF08C0EAFF09C0E1FF0AC0E2FF0BC0C8
:10008000D9FF0CC0DAFF14C0F3FF15C0F4FF16C08F
:10009000FAFF055007C0E0FF06C0D8FF100046C0B9
:1000A0001DF045C01CF044C01BF043C01AF0E8EF3F
:1000B00000F04B6A4C6A010E4D6EDA6AD96A506ADA
:1000C000430E4F6EEA6A470EE96E50C0E2FF4FC022
:1000D000E1FF4DC04EF0D890E550EE02F3504B22B8
:1000E000F4504C224E2EF7D74BC0DEFF4CC04BF0E5
:1000F0004C6AD8B04C2A4F2AD8B4502A4D2A4D50B9
:100100000508E0E1B7EF00F0016A026A006A036ADD
:10011000495002E1485018E0100E4A6ED890463619
:100120004736003603364950035C02E14850005C14
:1001300007E34850005ED8A003064950035ED8800C
:10014000013602364A2EEAD7D6EF00F01DC046F03F
:100150001CC045F01BC044F01AC043F0410E4A6E6B
:10016000C60E496E4E0E486E6D0E476EA2D7390E02
:1001700000241A6E300E01201B6E000E02201C6E31
:10018000000E03201D6E1CC000F01DC001F0026AAD
:10019000036A1DC045F01CC044F01DC047F01CC0E0
:1001A00046F07F0E496EFF0E486EAED700C001F0DC
:1001B00003C002F0F9EF00F0D650D7CF03F0416E44
:1001C000D7CF42F0466A456AD7CF44F0436E67D72F
:1001D0003E6A3D6A216A215016082AE3036A2150CB
:1001E000220F016E000E032201C041F003C042F055
:1001F000ADD742C0EAFF41C0E9FF01C0EFFF215087
:1002000002080EE2215016080BE3036A2150220F68
:10021000E96E000E0320EA6EEF503D26000E3E22EE
:10022000212C04D023502224246E212A212AD3D722
:100230003EC039F03DC03AF026EF01F0C7A007D02C
:10024000C7A0FED7C950C688206EB6D71E6A52EF27
:1002500001F0C95042C0C9FFC6889E96C7B0FED7FC
:10026000016AC6B8012A44EF01F0405080080DE150
:10027000036A1E50220FE96E000E0320EA6EEFCFD4
:1002800041F041C042F0E5D71E2A55EF01F0C7BA50
:1002900003D03F6AC9B03F8E3F503F2A1F6E1FC038
:1002A00040F0CCD71FC040F0E0D79E962CEF00F076
:1002B000F86AD09E0D8EEA6AE96A93829380A00E56
:1002C000C86E360EC66EC580C150C00B0F09C16E18
:1002D000070EB46E186A196A1E6A206A3D6A3E6A81
:0E02E000030E3F6EC00ED56E9D86F212030017
:020000040030CA
:0E000000240E3E1E008381000FC00FE00F4053
:00000001FF
;PIC18F2550
